:02000000B82A1C
:08000800FF00030E8312031335
:10001000B4000A0EB500040EB6008A110A12E02AD6
:1000200000000000CC0B10280800C908031D192887
:100030000800F53000000000000000000000000093
:1000400000000000000000000000000000000000B0
:1000500000000000FF3E031D1A2800000000000001
:100060000000000000000000000000000000000090
:1000700000000000C90B19280800CF08031D412803
:10008000080009300000FF3E031D42280000000068
:10009000CF0B41280800FA30C9001520FA30C900FA
:1000A0001520FA30C9001520FA30C9001520C70BF9
:1000B0004B280800D201D301D501D601D401541A2E
:1000C00008000310D50DD60DCC0DCD0DD20DD30DDE
:1000D0004F085302031D6E284E085202031C772856
:1000E0004E08D2024F08031CD303D3025514D40A7E
:1000F0005F28C8014708480203180800640001305F
:10010000C9001520C80A7A2804301F049F001F194F
:100110008728C8080319A0281E08C900CA01C90DEC
:10012000CA0DC90DCA0DFC30C90583161E0C8312F9
:10013000CB00CB0CCB0E03304B05C904CA08A32857
:100140001E08C900CA014908CB004A08CC000800B3
:100150004808003A031DBC280130C6000030BA0030
:100160008530B900CA08031DB9280E3083169F00D8
:10017000BC28053083169F00831383123A18831717
:10018000390884000008C50046084504CC008000FA
:100190004908CC00CD01CC0DCD0DCC0DCD0DCC0D35
:1001A000CD0DCC0DCD0DCC0DCD0DCC0DCD0DC0306C
:1001B0004C050138CF004808CE00CE0DCE0DCE0D37
:1001C000F8304E054F049F004B08CC00102008006B
:1001D0008313831203133A188317390884004508E0
:1001E0008000073083169F0083129F0108000710CC
:1001F000871007118711071287124C0E0F39CE0096
:100200000F30CE054E180714CE1887144E19071557
:10021000CE198715CD08031D07160A30CF003D20E3
:1002200087160A30CF003D2087120F304C05CE00D4
:100230000A30CF003D2007108710071187110712E1
:1002400087124E180714CE1887144E190715CE19A9
:100250008715CD08031D07160A30CF003D208716ED
:100260000A30CF003D2087120A30CF003D20080021
:10027000C81F47292D30CC001030CD00F72047088B
:10028000003CCC00C8090318C80A4C08C70047083E
:10029000C9004808CA0027304802031D5129103000
:1002A0004702031C7F29C81B7F29D0014908CC00C5
:1002B0004A08CD00CA1F6229CC09CD09CC0A03190E
:1002C000CD0AD00A1030CE002730CF005A20550872
:1002D000CB00501C6D29CB09CB0A4B08303ECC001B
:1002E0001030CD00F7204B08003C03187F29103058
:1002F000C9022730031C2830CA02CB0373290330FC
:100300004802031D8529E8304702031CB529C81B94
:10031000B529D1014908CC004A08CD00CA1F962949
:10032000CC09CD09CC0A0319CD0AD10AE830CE0098
:100330000330CF005A205508D000511CA129D00904
:10034000D00A5008CB004B08303ECC001030CD0016
:10035000F7204B08003C0318B529E830C9020330E8
:10036000031C0430CA02CB03A9294808803ACC00F8
:1003700080304C02031DBE2964304702031CEA2969
:10038000D1014908CC004A08CD00CA1FCD29CC09AB
:10039000CD09CC0A0319CD0AD10A6430CE00CF01B1
:1003A0005A205508D000511CD729D009D00A50082E
:1003B000CB004B08303ECC001030CD00F7204B086E
:1003C000003C0318EA296430C902CA08031CCA03A6
:1003D000CB03DF294808803ACC0080304C02031D53
:1003E000F3290A304702031C1F2AD1014908CC0017
:1003F0004A08CD00CA1F022ACC09CD09CC0A03192C
:10040000CD0AD10A0A30CE00CF015A205508D000BB
:10041000511C0C2AD009D00A5008CB004B08303EA2
:10042000CC001030CD00F7204B08003C03181F2AE9
:100430000A30C902CA08031CCA03CB03142A49089C
:10044000303ECC001030CD00F72008000130831280
:100450000313CC00CD01F7200230C7007920023011
:10046000CC00CD01F7200230C700792008008316A8
:100470000313071083120710831687108312871047
:1004800083160711831207118316871183128711B0
:10049000831607128312071283168712831287129C
:1004A0000C30C70079203330CC00CD01F72002306A
:1004B000C70079203330CC00CD01F7200230C700CF
:1004C00079203230CC00CD01F7200230C7007920EE
:1004D0002C30CC00CD01F7200230C7007920063047
:1004E000CC00CD01F7200230C70079200C30CC00C1
:1004F000CD01F7200230C70079200130CC00CD01BA
:10050000F7200230C70079200230CC00CD01F7205F
:100510000230C7007920080083120313C80103309A
:10052000C900CA012830CB00A820C80184204B088C
:10053000C700E8204708C8000800073083160313E7
:100540009F00C03081003722FE30831608058800E6
:10055000FE308312080588008C224808C400262239
:100560004408C700C80138210130C7004B20AC2A1D
:10057000D53083120313A000C430A100BB30A20009
:10058000DC30A300A401A501A601A701A801A901CF
:10059000AA01AB01AC01AD01AE01AF01BE01BF01CB
:1005A000B701B801C001C101C201C301B001B1016D
:1005B000B201B301BC01BD01BB018A110A129D2A1F
:1005C00083120313360E8400350E8A00340E830026
:0605D000FF0E7F0E090082
:02400E007A3FF7
:00000001FF
