:02000000052BCE
:08000800FF00030E8312031335
:10001000B4000A0EB500040EB6008A110A122D2B88
:1000200000000000CC0B10280800C908031D192887
:100030000800F53000000000000000000000000093
:1000400000000000000000000000000000000000B0
:1000500000000000FF3E031D1A2800000000000001
:100060000000000000000000000000000000000090
:1000700000000000C90B19280800CF08031D412803
:10008000080009300000FF3E031D42280000000068
:10009000CF0B41280800FA30C9001520FA30C900FA
:1000A0001520FA30C9001520FA30C9001520C70BF9
:1000B0004B280800D201D301D501D601D401541A2E
:1000C00008000310D50DD60DCC0DCD0DD20DD30DDE
:1000D0004F085302031D6E284E085202031C772856
:1000E0004E08D2024F08031CD303D3025514D40A7E
:1000F0005F28C8014708480203180800640001305F
:10010000C9001520C80A7A281F198428C8080319AD
:100110009D281E08C900CA01C90DCA0DC90DCA0D06
:10012000FC30C90583161E0C8312CB00CB0CCB0E02
:1001300003304B05C904CA08A0281E08C900CA011B
:1001400004301F049F004908CB004A08CC00080077
:100150004808003A031DBC280130C6000030BA0030
:100160008530B900CA08031DB9280E3083169F00D8
:10017000BC28053083169F00831383123A18831717
:10018000390884000008C50046084504CC008000FA
:100190004908CC00CD01CC0DCD0DCC0DCD0DCC0D35
:1001A000CD0DCC0DCD0DCC0DCD0DCC0DCD0DC0306C
:1001B0004C050138CF004808CE00CE0DCE0DCE0D37
:1001C000F8304E054F049F004B08CC00102004303F
:1001D0001F049F0008008313831203133A18831728
:1001E0003908840045088000073083169F00831279
:1001F0009F01080007108710071187110712871247
:100200004C0E0F39CE000F30CE054E180714CE1805
:1002100087144E190715CE198715CD08031D07162B
:100220000A30CF003D2087160A30CF003D208712CC
:100230000F304C05CE000A30CF003D20071087104C
:1002400007118711071287124E180714CE1887144A
:100250004E190715CE198715CD08031D07160A304C
:10026000CF003D2087160A30CF003D2087120A308C
:10027000CF003D200800C81F4A292D30CC00103087
:10028000CD00FA204708003CCC00C8090318C80A72
:100290004C08C7004708C9004808CA002730480270
:1002A000031D542910304702031C8229C81B8229D0
:1002B000D0014908CC004A08CD00CA1F6529CC09E5
:1002C000CD09CC0A0319CD0AD00A1030CE00273050
:1002D000CF005A205508CB00501C7029CB09CB0AFF
:1002E0004B08303ECC001030CD00FA204B08003CCB
:1002F000031882291030C9022730031C2830CA0293
:10030000CB03762903304802031D8829E8304702D1
:10031000031CB829C81BB829D1014908CC004A08D8
:10032000CD00CA1F9929CC09CD09CC0A0319CD0AE1
:10033000D10AE830CE000330CF005A205508D00053
:10034000511CA429D009D00A5008CB004B08303EDC
:10035000CC001030CD00FA204B08003C0318B8291F
:10036000E830C9020330031C0430CA02CB03AC29B5
:100370004808803ACC0080304C02031DC12964300B
:100380004702031CED29D1014908CC004A08CD00E1
:10039000CA1FD029CC09CD09CC0A0319CD0AD10A2C
:1003A0006430CE00CF015A205508D000511CDA2904
:1003B000D009D00A5008CB004B08303ECC0010309A
:1003C000CD00FA204B08003C0318ED296430C90227
:1003D000CA08031CCA03CB03E2294808803ACC00B0
:1003E00080304C02031DF6290A304702031C222AE2
:1003F000D1014908CC004A08CD00CA1F052ACC0902
:10040000CD09CC0A0319CD0AD10A0A30CE00CF019A
:100410005A205508D000511C0F2AD009D00A500884
:10042000CB004B08303ECC001030CD00FA204B08FA
:10043000003C0318222A0A30C902CA08031CCA0356
:10044000CB03172A4908303ECC001030CD00FA20EB
:100450000800013083120313CC00CD01FA200230D2
:10046000C70079200230CC00CD01FA200230C7004D
:1004700079200800831603130710831207108316D0
:1004800087108312871083160711831207118316B2
:10049000871183128711831607128312071283169E
:1004A0008712831287120C30C70079203330CC00BA
:1004B000CD01FA200230C70079203330CC00CD01C5
:1004C000FA200230C70079203230CC00CD01FA206A
:1004D0000230C70079202C30CC00CD01FA20023048
:1004E000C70079200630CC00CD01FA200230C700C9
:1004F00079200C30CC00CD01FA200230C7007920E1
:100500000130CC00CD01FA200230C7007920023042
:10051000CC00CD01FA200230C700792008008312F8
:100520000313C8010330C900CA012830CB00A8203A
:10053000C80184204B08C700EB204708C80008000A
:100540000730831603139F00C03081003A228316C0
:100550008801FF30831288008F224808C400B3301E
:1005600044020318BE2AFE30831608058800FE30B8
:1005700083120805C7000130470488009F304402F9
:100580000318C72A831688013F30831288008730FA
:1005900044020318D02A831688011F308312880072
:1005A0006F3044020318D92A831688010F30831252
:1005B0008800573044020318E22A83168801073066
:1005C000831288003F3044020318EB2A8316880107
:1005D000033083128800273044020318F42A83165C
:1005E00088010130831288000F3044020318FC2A6E
:1005F000831688018312880129224408C700C80194
:100600003B210130C7004B20A72AD53083120313AA
:10061000A000C430A100BB30A200DC30A300A401C4
:10062000A501A601A701A801A901AA01AB01AC017E
:10063000AD01AE01AF01BE01BF01B701B801C001FC
:10064000C101C201C301B001B101B201B301BC01DA
:10065000BD01BB018A110A12A02A83120313360EB0
:100660008400350E8A00340E8300FF0E7F0E0900D1
:02400E007A3FF7
:00000001FF
